:020000040800F2
:100000007806002081010008C70B0008C50B000816
:1000100000000000000000000000000000000000E0
:10002000000000000000000000000000CB0B0008F2
:100030000000000000000000C90B0008DD0B0008F4
:100040009301000893010008930100089301000840
:100050009301000893010008930100089301000830
:100060009301000893010008930100089301000820
:100070009301000893010008E90B000893010008B0
:100080009301000893010008930100089301000800
:1000900093010008930100089301000893010008F0
:1000A00093010008930100089301000893010008E0
:1000B00093010008930100089301000893010008D0
:1000C00000F002F800F04CF812A030C808382418EC
:1000D0002D18AC4201D100F043F80FCCA246AB463C
:1000E0000CA730CF2D1B083F3F197C427F1E544484
:1000F0002D090426F441641EAC4201D300F030F80F
:100100000126334200D0FB1A3343984754465D46DC
:10011000DFE700005C2200007C220000103A02D3DE
:1001200078C878C1FAD8520701D330C830C101D598
:1001300004680C6070470000704700000023002432
:1001400000250026103A01D378C1FBD8520700D30E
:1001500030C100D50B6070471FB51FBD10B510BD75
:1001600000F049F91146FFF7F7FF00F0A3FD00F09A
:1001700061F903B4FFF7F2FF03BC00F067F9000078
:100180000748804707480047FEE7FEE7FEE7FEE72F
:10019000FEE7FEE704480549054A064B70470000A4
:1001A000E50B0008C1000008780000207806002058
:1001B000780200207802002001E004C0091F042911
:1001C000FBD28B0701D50280801CC90700D00270CA
:1001D000704700290BD0C30702D00270401C491E93
:1001E000022904D3830702D50280801C891EE3E71D
:1001F0000022EEE70022DFE7002203098B4273D3DF
:10020000030A8B4258D3030B8B423CD3030C8B4223
:1002100021D312E003460B437FD4002243088B42D4
:1002200074D303098B425FD3030A8B4244D3030B7D
:100230008B4228D3030C8B420DD30902FF2212BA42
:10024000030C8B4202D31212090265D0030B8B42BE
:1002500019D300E0090AC30B8B4201D3CB03C01AA8
:100260005241830B8B4201D38B03C01A5241430B83
:100270008B4201D34B03C01A5241030B8B4201D373
:100280000B03C01A5241C30A8B4201D3CB02C01ADE
:100290005241830A8B4201D38B02C01A5241430A56
:1002A0008B4201D34B02C01A5241030A8B4201D345
:1002B0000B02C01A5241CDD2C3098B4201D3CB01EC
:1002C000C01A524183098B4201D38B01C01A52419B
:1002D00043098B4201D34B01C01A524103098B429F
:1002E00001D30B01C01A5241C3088B4201D3CB008A
:1002F000C01A524183088B4201D38B00C01A52416D
:1003000043088B4201D34B00C01A5241411A00D21C
:1003100001465241104670475DE0CA0F00D0494285
:10032000031000D3404253409C46002203098B42F5
:100330002DD3030A8B4212D38901FC2212BA030A7D
:100340008B420CD3890192118B4208D389019211FF
:100350008B4204D389013AD0921100E08909C30984
:100360008B4201D3CB01C01A524183098B4201D386
:100370008B01C01A524143098B4201D34B01C01A71
:10038000524103098B4201D30B01C01A5241C308E9
:100390008B4201D3CB00C01A524183088B4201D358
:1003A0008B00C01A5241D9D243088B4201D34B0073
:1003B000C01A5241411A00D20146524110466346CA
:1003C0005B1001D34042002B00D549427047634681
:1003D0005B1000D3404201B50449002802DC491CEF
:1003E000084000E00846C046C04602BDFFFFFF7F50
:1003F000704770477047754600F024F8AE46050018
:1004000069465346C008C000854618B020B5FFF7BE
:10041000C1FE60BCB64600260027C0C5C0C5C0C529
:10042000C0C5C0C5C0C5C0C5C0C5403D490849001C
:100430008D46704710B50446C046C0462046FFF7BB
:1004400098FE10BD00487047100000200149182098
:10045000ABBEFEE72600020070470000B0B51248B0
:10046000016820221143016010490B6813430B609F
:1004700001225202036893430360086840229043BC
:1004800008600B4D29685C2048436424214601F034
:100490005BFEA860074D29685A204843214601F0B9
:1004A00053FEE860B0BDC046140000481404004884
:1004B0002C2000402C000040B0B5044600F00CF8A1
:1004C0000546601C02D01A480078041900F004F8B0
:1004D000401BA042FAD3B0BD054800687047C04633
:1004E0001348007802490A68101808607047C0462F
:1004F0007400002070B504467D20C0000C4E317899
:1005000001F022FE01467748006801F01DFE00F070
:100510003FFB0125032C08D8002806D10025E8431D
:1005200021462A4600F006F87460284670BDC04691
:1005300000000020002805D40322034693430A4A02
:100540009A1803E00C220240064BD2188007C00E16
:100550008901C9B28140FF23834010689843084352
:100560001060704714ED00E000E400E0F0B581B0E9
:10057000002846D00446534A1368012003408B42AA
:1005800008D213680126B3430B431360126832404C
:100590008A4237D1009121688A074B4B10D54A0710
:1005A00006D5072212021B681343474A1360464BC5
:1005B0001A68F0239A43A3681343434A1360424BDB
:1005C000C90722D13F49086801263040009A90426D
:1005D00005D90868B04308600868C00712D12078C0
:1005E000400706D50720000219688143E0680843E8
:1005F00018601A681007810F3548022912D2044684
:1006000050E00126304601B0F0BD616803290DD0ED
:100610001A1F02290FD0012912D11268920306462F
:10062000F0D511E0032926D12A4C3BE01A6B920346
:100630000646E7D508E0126892010646E2D503E0D7
:10064000126892070646DDD518680326B0430843B2
:100650001860FFF741FF07461C4D1B4B18680C2123
:100660000140606880008142ACD0FFF735FFC01BBD
:10067000A842F2D9C6E70321CB031349896A0F24A4
:100680000C401549095D94021A40240F134D2C5D4E
:100690009A4202D033049A4200E00E4801F054FD21
:1006A0004443094B18680006000F0D49085CC4401C
:1006B0000C4804600320FFF71DFF0026304601B000
:1006C000F0BDC04600200240041002408813000024
:1006D00000127A00006CDC025E2300084E23000842
:1006E0003E23000808000020F0B587B00446012032
:1006F000002C00D145E204902078C007F94E059403
:100700000CD071680C200140042900D090E03068C2
:10071000800303D56068002800D120E1207880079D
:1007200021D570680007800F0ED070680C21014041
:10073000082900D09DE00320C0037168014001201A
:10074000C003814200D094E030688007059C03D547
:10075000E068012800D002E13068F821884321696F
:10076000C90001433160059C2078000724D420781B
:10077000400737D42078C00600D4D3E005984069FC
:10078000411D00D1C2E0012800D030E1706B04218E
:1007900001437163706B012101437163FFF79CFE9C
:1007A0000546706B800700D5B4E0FFF795FE411B4E
:1007B00003200229F5D9E4E1706AE169002900D13A
:1007C00081E0012108437062FFF786FE0546706AEA
:1007D0008007CCD4FFF780FE401B0228F7D9032006
:1007E00007B0F0BD012003900107F06908400290B6
:1007F00006D1F0690843F061F06908400690069858
:100800000191E14F3868C0054AD403980402386862
:1008100020433860FFF760FE0546386820423FD12C
:10082000FFF75AFE401B6428F7D9032007B0F0BD3C
:1008300071680140082908D10320C0037168014094
:1008400001200004814200D161E761680120470472
:10085000002900D117E1052900D12BE1012900D1A0
:100860002CE1010432688A43326081043068884395
:1008700027E13068059CE168002936D00121084352
:100880003060FFF729FE05463068800700D563E732
:10089000FFF722FE401B0228F6D9032007B0F0BD67
:1008A00005988068002800D1B6E0052800D1C9E08D
:1008B000012800D1CAE0306A039988433062306A67
:1008C00004218843C5E0012188437062FFF704FEDC
:1008D0000546706A800700D449E7FFF7FDFD401B1D
:1008E0000228F6D9032007B0F0BD0121884330600B
:1008F000FFF7F2FD05463068800700D433E7FFF7C5
:10090000EBFD411B03200229F5D93AE1706B04216C
:1009100088437063706BF821884305998969C90021
:10092000014371630598007880060BD571680C202F
:1009300001400C2939D1706B800303D50598006AFA
:1009400001280CD10598446A002C00D1E1E07068C0
:100950000C210140082905D1012C00D0C4E00498E5
:1009600007B0F0BD01200206316804929143316066
:100970004706FFF7B1FD0546022C0BD1049C3068F9
:10098000384200D1DEE0FFF7A7FD411B032002291A
:10099000F5D9F6E03068384200D1BAE0FFF79CFDA7
:1009A000411B03200229F5D9EBE0716801400829B9
:1009B00005D10320C003716801408142BBD0706B38
:1009C0000599096A002900D1A9E001210A04104310
:1009D00070634C04FFF780FD0546706B2042B1D177
:1009E000FFF77AFD411B03200229F6D9C9E0706B9D
:1009F000042101437163706B012188437063FFF729
:100A00006BFD0546706B80078CD5FFF765FD411BBC
:100A100003200229F6D9B4E0306A03998843306292
:100A2000306A042188433062584CFFF755FD054673
:100A3000306A80071DD5FFF74FFD411B0320A142FF
:100A4000F6D99EE0306A042101433162306A03998D
:100A5000084330624D4CFFF73FFD0546306A800782
:100A600007D4FFF739FD401BA042F7D9032007B098
:100A7000F0BD02980028059C00D07BE6F069019942
:100A80008843F06176E6010432688A43326080046C
:100A9000316881433160FFF71FFD0546059C3068D2
:100AA000384200D13AE6FFF717FD411B03206429C5
:100AB000F5D966E0810432680A4332600104306887
:100AC00008433060FFF708FD05463068384200D023
:100AD00024E6FFF701FD401B6428F6D9032007B088
:100AE000F0BDC046001002400320C20370680240FF
:100AF000F16A059CA36A9A42049D0DD10F22114010
:100B0000236B994208D191040840E16A8842284643
:100B100037D1002007B0F0BD284607B0F0BD012155
:100B20000A04904370634C04FFF7D6FC0546706BD3
:100B3000204200D106E7FFF7CFFC411B032002292A
:100B4000F5D91EE0F06A0F218843059A116B014325
:100B5000F1627B20C00371688143D06A0843916AC7
:100B600001437160306820433060FFF7B5FC0446F4
:100B700030683842CDD1FFF7AFFC011B03200229BA
:100B8000F6D907B0F0BDC0460070004088130000E1
:100B9000401E010E01D0012070470749074A5060EE
:100BA000074803680B40032189075918016000209A
:100BB0009060072111607047FFFFFF0010E000E028
:100BC00020ED00E0FEE7FEE7704770473748016818
:100BD0000021816036480268C160704780B5FFF728
:100BE0007FFC80BD704700000648816A064A11807C
:100BF0000168064A0A4002600548016840224A40EE
:100C000002607047102C014070000020FDFDFFFFC6
:100C10001408004870B52348016820229143016000
:100C20000121490203680B4303601F480168114317
:100C3000016001684022914301601C4D28685A26DA
:100C400070436424214601F07FFAA860184D28689B
:100C50007043214601F078FAE86070BD70B5114824
:100C600001682022114301600121490203688B437E
:100C700003600D48016891430160016840220A4306
:100C800002600A4D28685A2670436424214601F008
:100C90005BFAA860064D28687043214601F054FABB
:100CA000E86070BD14000048140400482C20004087
:100CB0002C00004000B5B1B013AC201D30210C91C8
:100CC000FFF798FA00251C9510201790012716971A
:100CD000022613962046FFF707FD002803D0EFF306
:100CE000108072B6FEE7039630952F952E95072457
:100CF0002D942DA82946FFF739FC002803D0EFF3E7
:100D0000108072B6FEE72E46E4488168E44A0A4342
:100D10008260610402680A430260FD490A46203A83
:100D2000FC4B1360112212040B6813430B60FA4B47
:100D30001946103945220A6019461C390D220A60ED
:100D4000FA03F6490A60FF230F93AA33129357332D
:100D5000F34D2B603B042B62F24B1D6808212943A5
:100D600019601C61F0495961196860240C431C60CA
:100D70009968394399600A210E91D961183B196825
:100D8000394319607D211091090111913031436877
:100D90000B434360790403680B430360032420047E
:100DA000E24A1346103B1D688543681815461860D3
:100DB0005069039908430B465061B803D74908604E
:100DC0000F980004DA490A6882430A601299583180
:100DD000D84882690A438261816854220A4382604A
:100DE000016A31220A430262C1681943C160016885
:100DF0003943016001F03CF9281F0168039A11434F
:100E00000160CD4A2868384071004018904211D0E6
:100E1000296839404000081890420BD029683940B1
:100E200040000818904205D02968394040000E184B
:100E30009642E7D1C148FFF73FFB1098C6002868EB
:100E4000C00701D001F0A6F8E12040010190032085
:100E50000490C443002009901094FFF7FFFA304635
:100E600064300690FFF728FBFFF7B0FE3046FFF72F
:100E700023FB2868C00701D001F08AF8099CA01C58
:100E800013AD0B902F54601C0D902F54FFF7C2FE32
:100E90001298FFF711FBFFF799FE3046FFF70CFBA6
:100EA000A7480088A749884203D913A80021015503
:100EB0002FE02D1903992970FFF7D0FE1298FFF744
:100EC000FBFAFFF783FE3046FFF7F6FA9C4A1088DC
:100ED0009C49884204D913A800210D9A815418E036
:100EE0000F9513A80D99039D45541446FFF7B6FEC0
:100EF0001298FFF7E1FAFFF769FE3046FFF7DCFAD8
:100F00002088904988420CD913A800210B9A81545B
:100F1000099CE41C854D09942868C0079DD001F008
:100F200037F813A80B994554FFF798FE1298FFF76E
:100F3000C3FAFFF74BFE3046FFF7BEFA2A462B46B0
:100F400009997A4D0AE0089B059A099C07980019AF
:100F50000F90007802282146744DDCD1022B01D07D
:100F600000F0F2FD022A01D000F0EEFD0F980770AC
:100F700013AC0819877047700B91FFF76FFA06984A
:100F8000FFF79AFAFFF722FE3046FFF795FA0B9A21
:100F9000D31EE55C002D09930794059513D0911E8F
:100FA00013A8405C0890002842D00291501E13A95B
:100FB000095C002976D0624D089B029C012B00D170
:100FC00068E300F08AFC13A80221C154D81719461F
:100FD0004140081A00210A285ED30F9101460846B5
:100FE0000D460D910E9C214601F0AEF84443291B9D
:100FF000302529430F9AD4B22DAB1955012414433F
:101000000D99642900D29FE00A21FFF7F5F82943E2
:10101000E0B22DAA115464210D9C204601F094F8F1
:101020000F99891C0F91711E8C420146D7D88CE014
:1010300013A8022208924254C8174140081A0021FE
:101040000A2863D30F91044620460E9D294601F0DD
:101050007BF84543611B0C9A11430F9AD5B22DAB17
:101060005955012515430D94642C00D253E10A21F2
:10107000FFF7C2F80C980143E8B22DAA115464217D
:101080000D9D284601F060F80F99891C0F91711E83
:101090008D420446D8D83FE10F9156E0141002402B
:1010A0000200040013A902220A54C1174840401A42
:1010B00000210A2800D22CE10F91044620460E9D03
:1010C000294601F041F84543611B0C9A11430F9AE0
:1010D000D5B22DAB5955012515430D94642C00D282
:1010E000F2E10A21FFF788F80C980143E8B22DAA33
:1010F000115464210D9D284601F026F80F99891C92
:101100000F91711E8D420446D8D8DEE10F9103E1A4
:1011100020080048005A05001C48004000E100E09B
:101120000004004818040040102700001000004888
:101130000CE400E0002C0140FFFFFF7FDC05000015
:1011400070000020FF1D00000F940F9BD9B23030BB
:101150002DAA5054581C0B99022905DCC0B22DA9A8
:101160002D220A540F98801CE84BE94DC4B2002C84
:101170006CD0611C4808012800D801200428089080
:101180000F9401D2002230E0FC2101400A91641E3C
:1011900000252DA94A5D0B5D4B550A554B19587812
:1011A0000D901098801C68400F9A80180A5C5A7045
:1011B0000D9A0A5498780D901098421C6A400F9826
:1011C0001218885C98700D988854D8780D902A1D54
:1011D000109845400F982D18485DD8700D984855C7
:1011E000241F0A9890421546D3D1049808990140CB
:1011F000C64BC74D0F9C29D0084608912DA8855C89
:10120000D3431B192146C45C84540C46C55408982A
:10121000BF4DBE4B012819D02DA813185C788D1A2C
:101220000D952818801E05785D70B94DB74B047078
:101230000C460898022809D02DA8121893780D9909
:101240000818C01E017891700370B04B2DA80021C2
:101250000155007804E0C0B29881491C2DA8405C7B
:1012600000280CD01A681206F5D41A681206F2D4B7
:101270001A681206EFD41A681206F3D5EBE718685D
:10128000000608D41868000605D41868000602D4C1
:1012900018680006F3D5202098811968090608D43B
:1012A0001968090605D41968090602D419680906DF
:1012B000F3D53A2199811968090608D419680906F5
:1012C00005D41968090602D419680906F3D598816E
:1012D0002DAA002050703221117005E09981401C28
:1012E0002DA9095C00290CD01A681206F6D41A68D8
:1012F0001206F3D41A681206F0D41A681206F3D54F
:10130000ECE70B9A941E13A8035D012B00D1C1E1F9
:10131000E3E20F91D9E00F950F9BD9B230302DAA9F
:101320005054581C0B99012905DCC0B22DA92D225F
:101330000A540F98801C754BC5B2002D68D0691CEB
:101340004808012800D80120042802900F9501D2F6
:10135000002230E0FC2101400A916C1E00252DA9DD
:101360004A5D0B5D4B550A554B1958780D901098F6
:10137000801C68400F9A80180A5C5A700D9A0A54B3
:1013800098780D901098421C6A400F981218885C4B
:1013900098700D988854D8780D902A1D1098454063
:1013A0000F982D18485DD8700D984855241F0A983D
:1013B00090421546D3D1049802990140534B0F9D9A
:1013C00026D0084602912DA8815CD3435B19C45CEA
:1013D0008454C15402984D4B012819D02DA81318DC
:1013E00059780D91AC1A2018801E294605785D7039
:1013F0000D46464B0D9901700298022808D02DA881
:10140000121893782018C01E0178917003703F4B1A
:101410002DA800214155007804E0C0B29881491CF4
:101420002DA8405C00280CD01A681206F5D41A6862
:101430001206F2D41A681206EFD41A681206F3D50F
:10144000EBE71868000608D41868000605D4186889
:10145000000602D418680006F3D520209881196888
:10146000090608D41968090605D41968090602D4C2
:1014700019680906F3D53A2199811968090608D433
:101480001968090605D41968090602D419680906FD
:10149000F3D598812DAA002050703221117006E0FA
:1014A0009981401C2DA9095C002900D113E21A681A
:1014B0001206F5D41A681206F2D41A681206EFD48E
:1014C0001A681206F3D5EBE70F950F9BD9B23030AF
:1014D0002DAA5054581C0B99002905DCC0B22DA927
:1014E0002D220A540F98801C084B094D029CC0B253
:1014F0000F9000286DD00F98411C4908012900D891
:1015000039460429009105D2002234E01C480040ED
:1015100070000020FC220A400A92441E00252DA9DA
:101520004A5D0B5D4B550A554B1958780D90109834
:10153000801C68400F9A80180A5C5A700D9A0A54F1
:1015400098780D901098421C6A400F981218885C89
:1015500098700D988854D8780D902A1D10984540A1
:101560000F982D18485DD8700D984855241F0A987B
:1015700090421546D3D1049800990140DE4BDF4DCF
:10158000029C26D02DA80091815CD3430F9C1B198F
:10159000C45C8454029CC1540099D74B012918D0D3
:1015A0002DA813185C780F99891A0818801E0578E1
:1015B0005D70D24DD04B0470029C0098022808D078
:1015C0002DA8121893780818C01E01789170037026
:1015D000C94B2DA800210F9A8154007804E0C0B2B5
:1015E0009881491C2DA8405C00280CD01A6812066E
:1015F000F5D41A681206F2D41A681206EFD41A68E3
:101600001206F3D5EBE71868000608D41868000640
:1016100005D41868000602D418680006F3D5202007
:1016200098811968090608D41968090605D419684B
:10163000090602D419680906F3D53A219981196877
:10164000090608D41968090605D41968090602D4E0
:1016500019680906F3D598812DAA0020507032210F
:10166000117005E09981401C2DA9095C00290CD05E
:101670001A681206F6D41A681206F3D41A6812060B
:10168000F0D41A681206F3D5ECE70B9A089B012BED
:1016900000D022E1FFF7BEFA1298FEF70DFFFFF728
:1016A00095FA3046FEF708FFE017214641400B1A35
:1016B00028880199884200D378E213A802210155B5
:1016C0000A2B08912CD300200F90184605460D9048
:1016D0000E9C214600F038FD03464443281B30256C
:1016E00028430F99CCB22DAA105501240C430D9814
:1016F000642818D30A211846FEF77EFD2943E0B27C
:101700002DAA115464210D9C204600F01DFD0346B6
:101710000F98801C0F90701E84421846D6D803E0A4
:1017200000200F9000E00F940F9AD0B230332DA913
:101730000B54501C0B99012905DCC0B22DA92D2298
:101740000A540F98801C6C4BC5B2002D68D0691CE0
:101750004808012800D80120042802900F9501D2E2
:10176000002230E0FC2101400A916C1E00252DA9C9
:101770004A5D0B5D4B550A554B1958780D901098E2
:10178000801C68400F9A80180A5C5A700D9A0A549F
:1017900098780D901098421C6A400F981218885C37
:1017A00098700D988854D8780D902A1D109845404F
:1017B0000F982D18485DD8700D984855241F0A9829
:1017C00090421546D3D10498029901404A4B0F9D8F
:1017D00026D0084602912DA8815CD3435B19C45CD6
:1017E0008454C1540298444B012819D02DA81318D1
:1017F00059780D91AC1A2018801E294605785D7025
:101800000D463D4B0D9901700298022808D02DA875
:10181000121893782018C01E017891700370364B0F
:101820002DA800214155007804E0C0B29881491CE0
:101830002DA8405C00280CD01A681206F5D41A684E
:101840001206F2D41A681206EFD41A681206F3D5FB
:10185000EBE71868000608D41868000605D4186875
:10186000000602D418680006F3D520209881196874
:10187000090608D41968090605D41968090602D4AE
:1018800019680906F3D53A2199811968090608D41F
:101890001968090605D41968090602D419680906E9
:1018A000F3D598812DAA002050703221117005E0E7
:1018B0009981401C2DA9095C00290CD01A681206D8
:1018C000F6D41A681206F3D41A681206F0D41A680D
:1018D0001206F3D5ECE70B9A089B551E13A8425D40
:1018E000012A01D0FFF731FB08930598002807D0A3
:1018F000FFF790F906E0C0461C4800407000002049
:10190000FFF7ACF91298FEF7D7FDFFF75FF9304605
:10191000FEF7D2FDE817294641400B1AFE48008821
:101920000199884200D312E113A8022141550A2BE4
:1019300005912CD300200F90184605460D900E9C63
:10194000214600F001FC03464443281B3025284370
:101950000F99CCB22DAA105501240C430D98642880
:1019600018D30A211846FEF747FC2943E0B22DAAF6
:10197000115464210D9C204600F0E6FB03460F98AD
:10198000801C0F90701E84421846D6D803E00020B9
:101990000F9000E00F940F9AD0B230332DA90B5462
:1019A000501C0B99002905DCC0B22DA92D220A5428
:1019B0000F98801CD94BC5B2002D68D0691C48080F
:1019C000012800D8012004280A900F9501D2002296
:1019D00030E0FC2101400B916C1E00252DA94A5DD1
:1019E0000B5D4B550A554B1958780D901098801C7B
:1019F00068400F9A80180A5C5A700D9A0A549878B9
:101A00000D901098421C6A400F981218885C9870CC
:101A10000D988854D8780D902A1D109845400F983D
:101A20002D18485DD8700D984855241F0B9890428A
:101A30001546D3D104980A990140B84B0F9D26D082
:101A400008460A912DA8815CD3435B19C45C845479
:101A5000C1540A98B14B012819D02DA813185978F0
:101A60000D91AC1A2018801E294605785D700D4630
:101A7000AA4B0D9901700A98022808D02DA81218B7
:101A800093782018C01E017891700370A34B2DA885
:101A900000214155007804E0C0B29881491C2DA86E
:101AA000405C00280CD01A681206F5D41A68120699
:101AB000F2D41A681206EFD41A681206F3D5EBE7CF
:101AC0001868000608D41868000605D418680006CF
:101AD00002D418680006F3D52020988119680906F9
:101AE00008D41968090605D41968090602D41968CA
:101AF0000906F3D53A2199811968090608D41968AD
:101B0000090605D41968090602D419680906F3D52F
:101B100098812DAA002050703221117007E0998120
:101B2000401C2DA9095C002901D1FFF70CFA1A68A5
:101B30001206F4D41A681206F1D41A681206EED40A
:101B40001A681206F3D5EAE70C46FFF7E4F913A882
:101B5000002444550A2B57D300240F9318462546DA
:101B60000E9C214600F0F0FA44430F9A111B3022DC
:101B70000D921143EAB22DAB99540F9A01242C43D4
:101B8000642A42D30A21FEF737FB0D980143E0B2E5
:101B90002DAA115464210F9C204600F0D5FAAD1CEB
:101BA000711E8C4203462C46D7D82EE013A8002580
:101BB00005550A2B48D300250F9318460E9C214645
:101BC00000F0C2FA44430F9A111B30220D921143C8
:101BD000EAB22DAB99540F9A01242C43642A00D207
:101BE000F7E00A21FEF708FB0D980143E0B22DAAA9
:101BF000115464210F9C204600F0A6FAAD1C711E02
:101C00008C420346D8D8E5E01846E1B230302DAA20
:101C10005054601C0B99002904DCC0B22DA92D2260
:101C20000A54A01C3E4D0C9C3C4BC0B20F900028A7
:101C30006BD00F98411C4908012900D801210429C3
:101C40000A9103D2002232E01846C3E0FC220A4087
:101C50000B92441E00252DA94A5D0B5D4B550A557C
:101C60004B1958780D901098801C68400F9A801876
:101C70000A5C5A700D9A0A5498780D901098421C7C
:101C80006A400F981218885C98700D988854D8781C
:101C90000D902A1D109845400F982D18485DD8705A
:101CA0000D984855241F0B9890421546D3D104989F
:101CB0000A990140EC4D0C9CEA4B26D02DA80A91C4
:101CC000815CD3430F9C1B19C45C84540C9CC1548D
:101CD0000A99E44B012918D02DA813185C780F99A4
:101CE000891A0818801E05785D70DE4BDE4D047081
:101CF0000C9C0A98022808D02DA81218937808186E
:101D0000C01E017891700370D64B2DA800210F9A48
:101D1000815400780BE0C046700000201C48004051
:101D200010000048C0B29881491C2DA8405C0028D2
:101D30000CD01A681206F5D41A681206F2D41A6882
:101D40001206EFD41A681206F3D5EBE718680006FE
:101D500008D41868000605D41868000602D418686C
:101D60000006F3D5202098811968090608D419685F
:101D7000090605D41968090602D419680906F3D5BD
:101D80003A2199811968090608D41968090605D409
:101D90001968090602D419680906F3D598812DA996
:101DA000002048700C70214606E09981401C2DA946
:101DB000095C002900D1E8E01A681206F5D41A6817
:101DC0001206F2D41A681206EFD41A681206F3D576
:101DD000EBE72546E9B230302DAA5054681C0B9928
:101DE000012904DCC0B22DA92D220A54A81C9E4D45
:101DF0009C4BC4B2002C6DD0611C4808012800D84F
:101E0000012004280A900F9401D2002230E0FC2126
:101E100001400B91641E00252DA94A5D0B5D4B55B9
:101E20000A554B1958780D901098801C68400F9AED
:101E300080180A5C5A700D9A0A5498780D90109880
:101E4000421C6A400F981218885C98700D9888544C
:101E5000D8780D902A1D109845400F982D18485D90
:101E6000D8700D984855241F0B9890421546D3D131
:101E700004980A9901407C4D7A4B0F9C2AD0084661
:101E80000A912DA8815C0D91D3431B19C45C845425
:101E90000F9C0D99C1540A98724B01281AD02DA895
:101EA00013185C780F998D1A0D952818801E0578E7
:101EB0005D706C4B6C4D04700F9C0A98022809D021
:101EC0002DA8121893780D990818C01E01789170EA
:101ED0000370644B2DA800210155007804E0C0B2C6
:101EE0009881491C2DA8405C00280CD01A68120665
:101EF000F5D41A681206F2D41A681206EFD41A68DA
:101F00001206F3D5EBE71868000608D41868000637
:101F100005D41868000602D418680006F3D52020FE
:101F200098811968090608D41968090605D4196842
:101F3000090602D419680906F3D53A21998119686E
:101F4000090608D41968090605D41968090602D4D7
:101F500019680906F3D598812DAA00205070302108
:101F6000117005E09981401C2DA9095C00290CD055
:101F70001A681206F6D41A681206F3D41A68120602
:101F8000F0D41A681206F3D5ECE7099CFEF7C3FFFC
:101F90000998C41C032C1DDA1198FEF78DFA334AF8
:101FA000002029683940400008189042F4D0296880
:101FB0003940400008189042EED02968394040006E
:101FC00008189042E8D0296839404000081890422B
:101FD000E7D1E1E71198FEF76FFA0020224A234B80
:101FE0001168394040000818984211D011683940F2
:101FF0004000081898420BD011683940400008187A
:10200000984205D011683940400008189842E7D13D
:1020100000250EE0FEF7FEFD1298FEF74DFAFEF7E2
:10202000D5FD3046FEF748FAE81CA91DA142054639
:10203000D0DCFEF713FA30466430FEF73DFAFEF7C7
:10204000C5FD3046FEF738FA13A84019C0780028BD
:10205000E0D013A8401940790028E5D1FEF7FEFD35
:10206000DAE7C0461C48004010000048FFFFFF7F31
:10207000F0B5012041020922D20613680B43136018
:1020800004021368A34313600F231B04156A9D43C6
:1020900015628304156A1D4315621368264D1D439E
:1020A0001560556920231D43556155698D43556160
:1020B000224A116821431160214D00212960A96144
:1020C0002962AC6968262643AE612C6A04432C62FF
:1020D000A8624B242401EC6269632E6806432E60DB
:1020E000184D2E68802737432F6046032F6A3743E9
:1020F0002F620526B6022F6837432F606E691E4394
:102100006E616B694026B3436B61136803431360D0
:1021100082071160916111620D23DB0295691D43F5
:102120009561136A10251D4315629062D462916314
:10213000116801431160F0BD000404001C1002404E
:10214000002000400004004843088B421AD30022BC
:1021500003098B4279D3030A8B425ED3030B8B4274
:1021600042D3030C8B4227D30902FF2212BA030C7D
:102170008B4202D31212090203D0030B8B4233D3DA
:102180001AE0D3E0411A8041401C704703460B43DC
:1021900071D443088B42F5D3002203098B4254D3F8
:1021A000030A8B4239D3030B8B421DD3030C8B42A2
:1021B00002D394466EE0090AC30B8B4201D3CB03D2
:1021C000C01A5241830B8B4201D38B03C01A524178
:1021D000430B8B4201D34B03C01A5241030B8B427A
:1021E00001D30B03C01A5241C30A8B4201D3CB0265
:1021F000C01A5241830A8B4201D38B02C01A52414A
:10220000430A8B4201D34B02C01A5241030A8B424C
:1022100001D30B02C01A5241CDD2C3098B4201D364
:10222000CB01C01A524183098B4201D38B01C01AE2
:10223000524143098B4201D34B01C01A5241030959
:102240008B4201D30B01C01A5241C3088B4201D308
:10225000CB00C01A524183088B4201D38B00C01AB5
:10226000524143088B4201D34B00C01A5241411ADC
:10227000524110007047CA0F00D04942031000D3EA
:102280004042534000229C4603098B422DD3030A4F
:102290008B4212D38901FC2212BA030A8B420CD35F
:1022A000890192118B4208D3890192118B4204D388
:1022B000890137D0921100E08909C3098B4201D30B
:1022C000CB01C01A524183098B4201D38B01C01A42
:1022D000524143098B4201D34B01C01A52410309B9
:1022E0008B4201D30B01C01A5241C3088B4201D368
:1022F000CB00C01A524183088B4201D38B00C01A15
:102300005241D9D243088B4201D34B00C01A5241EB
:10231000411A00D201465241104663465B1000D379
:102320004042704763465B1000D3404201B5002134
:10233000004201D0C9430846C046C04602BD000065
:102340000000000000000102030406070809020360
:102350000405060708090A0B0C0D0E0F10100102E8
:10236000030405060708090A0B0C0D0E0F100000E8
:102370009023000800000020100000001C0100084D
:10238000A023000810000020680600003C0100089F
:10239000010000000400000000127A0000000000AC
:04000005080000C12E
:00000001FF
