:020000040800F2
:100000007806002081010008CF090008CD0900080A
:1000100000000000000000000000000000000000E0
:10002000000000000000000000000000D3090008EC
:100030000000000000000000D1090008E5090008E8
:100040009301000893010008930100089301000840
:100050009301000893010008930100089301000830
:100060009301000893010008930100089301000820
:100070009301000893010008F109000893010008AA
:100080009301000893010008930100089301000800
:1000900093010008930100089301000893010008F0
:1000A00093010008930100089301000893010008E0
:1000B00093010008930100089301000893010008D0
:1000C00000F002F800F04CF812A030C808382418EC
:1000D0002D18AC4201D100F043F80FCCA246AB463C
:1000E0000CA730CF2D1B083F3F197C427F1E544484
:1000F0002D090426F441641EAC4201D300F030F80F
:100100000126334200D0FB1A3343984754465D46DC
:10011000DFE70000E014000000150000103A02D3F1
:1001200078C878C1FAD8520701D330C830C101D598
:1001300004680C6070470000704700000023002432
:1001400000250026103A01D378C1FBD8520700D30E
:1001500030C100D50B6070471FB51FBD10B510BD75
:1001600000F04DF81146FFF7F7FF00F0A7FC00F094
:1001700065F803B4FFF7F2FF03BC00F06BF8000072
:100180000748804707480047FEE7FEE7FEE7FEE72F
:10019000FEE7FEE704480549054A064B70470000A4
:1001A000ED090008C1000008780000207806002052
:1001B000780200207802002001E004C0091F042911
:1001C000FBD28B0701D50280801CC90700D00270CA
:1001D000704700290BD0C30702D00270401C491E93
:1001E000022904D3830702D50280801C891EE3E71D
:1001F0000022EEE70022DFE7704770477047754640
:1002000000F024F8AE46050069465346C008C00019
:10021000854618B020B5FFF7BDFF60BCB646002686
:100220000027C0C5C0C5C0C5C0C5C0C5C0C5C0C504
:10023000C0C5403D490849008D46704710B5044689
:10024000C046C0462046FFF794FF10BD00487047E7
:100250001000002001491820ABBEFEE72600020076
:1002600070470000B0B512480168202211430160B8
:1002700010490B6813430B60012252020368934339
:10028000036008684022904308600B4D29685C2099
:1002900048436424214601F099F8A860074D296875
:1002A0005A204843214601F091F8E860B0BDC046AD
:1002B00014000048140400482C2000402C0000408A
:1002C000B0B5044600F00CF80546601C02D01A4890
:1002D0000078041900F004F8401BA042FAD3B0BD26
:1002E000054800687047C0461348007802490A680C
:1002F000101808607047C0467400002070B50446AE
:100300007D20C0000C4E317801F060F8014677483E
:10031000006801F05BF800F03FFB0125032C08D8D2
:10032000002806D10025E84321462A4600F006F8B9
:100330007460284670BDC04600000020002805D427
:100340000322034693430A4A9A1803E00C22024010
:10035000064BD2188007C00E8901C9B28140FF2325
:1003600083401068984308431060704714ED00E024
:1003700000E400E0F0B581B0002846D00446534ABE
:100380001368012003408B4208D213680126B3434F
:100390000B431360126832408A4237D100912168C2
:1003A0008A074B4B10D54A0706D5072212021B6855
:1003B0001343474A1360464B1A68F0239A43A368D5
:1003C0001343434A1360424BC90722D13F4908688F
:1003D00001263040009A904205D90868B043086071
:1003E0000868C00712D12078400706D50720000210
:1003F00019688143E068084318601A681007810F84
:100400003548022912D2044650E00126304601B098
:10041000F0BD616803290DD01A1F02290FD00129F0
:1004200012D1126892030646F0D511E0032926D1B5
:100430002A4C3BE01A6B92030646E7D508E01268A7
:1004400092010646E2D503E0126892070646DDD522
:1004500018680326B04308431860FFF741FF0746BA
:100460001C4D1B4B18680C210140606880008142C4
:10047000ACD0FFF735FFC01BA842F2D9C6E7032175
:10048000CB031349896A0F240C401549095D940276
:100490001A40240F134D2C5D9A4202D033049A4225
:1004A00000E00E4800F092FF4443094B1868000634
:1004B000000F0D49085CC4400C4804600320FFF79E
:1004C0001DFF0026304601B0F0BDC04600200240AE
:1004D000041002408813000000127A00006CDC0255
:1004E000E2150008D2150008C21500080800002017
:1004F000F0B587B004460120002C00D145E20490FD
:100500002078C007F94E05940CD071680C2001408A
:10051000042900D090E03068800303D5606800288B
:1005200000D120E12078800721D570680007800F76
:100530000ED070680C210140082900D09DE00320F6
:10054000C003716801400120C003814200D094E0E3
:1005500030688007059C03D5E068012800D002E1DF
:100560003068F82188432169C90001433160059C46
:100570002078000724D42078400737D42078C0069C
:1005800000D4D3E005984069411D00D1C2E00128A4
:1005900000D030E1706B042101437163706B012165
:1005A00001437163FFF79CFE0546706B800700D521
:1005B000B4E0FFF795FE411B03200229F5D9E4E1E1
:1005C000706AE169002900D181E00121084370626D
:1005D000FFF786FE0546706A8007CCD4FFF780FEE1
:1005E000401B0228F7D9032007B0F0BD012003907B
:1005F0000107F0690840029006D1F0690843F061F4
:10060000F0690840069006980191E14F3868C005EE
:100610004AD403980402386820433860FFF760FE2C
:100620000546386820423FD1FFF75AFE401B642838
:10063000F7D9032007B0F0BD71680140082908D13F
:100640000320C0037168014001200004814200D1F1
:1006500061E7616801204704002900D117E10529FD
:1006600000D12BE1012900D12CE1010432688A4339
:10067000326081043068884327E13068059CE16876
:10068000002936D0012108433060FFF729FE0546D6
:100690003068800700D563E7FFF722FE401B022881
:1006A000F6D9032007B0F0BD05988068002800D176
:1006B000B6E0052800D1C9E0012800D1CAE0306ABF
:1006C000039988433062306A04218843C5E00121E0
:1006D00088437062FFF704FE0546706A800700D405
:1006E00049E7FFF7FDFD401B0228F6D9032007B0BC
:1006F000F0BD012188433060FFF7F2FD0546306808
:10070000800700D433E7FFF7EBFD411B03200229EC
:10071000F5D93AE1706B042188437063706BF8215E
:10072000884305998969C900014371630598007878
:1007300080060BD571680C2001400C2939D1706BF3
:10074000800303D50598006A01280CD10598446AF6
:10075000002C00D1E1E070680C210140082905D18E
:10076000012C00D0C4E0049807B0F0BD01200206BF
:1007700031680492914331604706FFF7B1FD0546A9
:10078000022C0BD1049C3068384200D1DEE0FFF728
:10079000A7FD411B03200229F5D9F6E03068384255
:1007A00000D1BAE0FFF79CFD411B03200229F5D9D7
:1007B000EBE071680140082905D10320C00371688E
:1007C00001408142BBD0706B0599096A002900D1B4
:1007D000A9E001210A04104370634C04FFF780FD77
:1007E0000546706B2042B1D1FFF77AFD411B032013
:1007F0000229F6D9C9E0706B042101437163706B63
:10080000012188437063FFF76BFD0546706B80071D
:100810008CD5FFF765FD411B03200229F6D9B4E012
:10082000306A039988433062306A04218843306219
:10083000584CFFF755FD0546306A80071DD5FFF778
:100840004FFD411B0320A142F6D99EE0306A0421EE
:1008500001433162306A0399084330624D4CFFF71F
:100860003FFD0546306A800707D4FFF739FD401B7E
:10087000A042F7D9032007B0F0BD02980028059CDC
:1008800000D07BE6F06901998843F06176E60104C7
:1008900032688A4332608004316881433160FFF7F7
:1008A0001FFD0546059C3068384200D13AE6FFF747
:1008B00017FD411B03206429F5D966E081043268E5
:1008C0000A4332600104306808433060FFF708FDD6
:1008D00005463068384200D024E6FFF701FD401B92
:1008E0006428F6D9032007B0F0BDC04600100240CE
:1008F0000320C20370680240F16A059CA36A9A4211
:10090000049D0DD10F221140236B994208D191040F
:100910000840E16A8842284637D1002007B0F0BD80
:10092000284607B0F0BD01210A04904370634C04CF
:10093000FFF7D6FC0546706B204200D106E7FFF7B3
:10094000CFFC411B03200229F5D91EE0F06A0F21DC
:100950008843059A116B0143F1627B20C0037168E3
:100960008143D06A0843916A014371603068204333
:100970003060FFF7B5FC044630683842CDD1FFF750
:10098000AFFC011B03200229F6D907B0F0BDC04619
:100990000070004088130000401E010E01D00120AD
:1009A00070470749074A5060074803680B40032116
:1009B0008907591801600020906007211160704775
:1009C000FFFFFF0010E000E020ED00E0FEE7FEE7A3
:1009D00070477047374801680021816036480268D7
:1009E000C160704780B5FFF77FFC80BD7047000095
:1009F0000648816A064A11800168064A0A40026078
:100A00000548016840224A4002607047102C0140AE
:100A100070000020FDFDFFFF1408004870B523485A
:100A200001682022914301600121490203680B43C0
:100A300003601F480168114301600168402291432F
:100A400001601C4D28685A2670436424214600F03A
:100A5000BDFCA860184D28687043214600F0B6FC24
:100A6000E86070BD70B51148016820221143016033
:100A70000121490203688B4303600D4801689143DB
:100A80000160016840220A4302600A4D28685A2624
:100A900070436424214600F099FCA860064D286844
:100AA0007043214600F092FCE86070BD14000048DD
:100AB000140400482C2000402C00004000B59DB0DC
:100AC00010AD281D30210A91FFF794FB00241994E2
:100AD0001020149001261396022710972846FFF73E
:100AE00007FD002803D0EFF3108072B6FEE70B97E6
:100AF00000960F940E940D9407250C950CA8214692
:100B0000FFF738FC002803D0EFF3108072B6FEE741
:100B10002746D6488168D64A0A438260690402683B
:100B20000A430260D3490A46203AD34B136011228C
:100B300012040B6813430B60D04C21461039452238
:100B40000A6021461C390D2003900860009AD003EA
:100B5000CB490860FF260996AA3633465733C94861
:100B6000036013040362C84B18680821014319602D
:100B70001D61C64858611868602101431960986872
:100B8000104398600A200690D861183B18681043FB
:100B90001860D0021346B54A5168014351605804A9
:100BA000116801431160032101910904B84D2B46DE
:100BB000103B1A688A431018186068690B9908433B
:100BC0006861009B9803AE49086009980004B14928
:100BD0000A6882430A60059631465831AE488269F8
:100BE0000A438261816854220A438260016A312289
:100BF0000A430262C1680B9A1143C16001681E4634
:100C00001943016000F076FB281F01680B9A11431D
:100C100033460160A148296819407A008918814249
:100C200011D02A681A404900511881420BD02A6815
:100C30001A4049005118814205D02A681A404900DB
:100C400057188742E7D17D20C5000198C0430B901B
:100C5000934E059F049500E0A181FFF703FB284612
:100C60009630FFF72DFBFFF7B5FE2846FFF728FB70
:100C7000FFF7D4FE3846FFF723FBFFF7ABFE28460D
:100C8000FFF71EFB87490888B04229D90F880F203B
:100C90004101384600F09AFB05468348874259D9FE
:100CA0000021069E0F462846314600F08FFB314654
:100CB0004143691A0A9A1143FAB210AB9954791C4C
:100CC000632D0546EED8C9B2303010AA5054B81C76
:100CD000C0B20028724E41D10027059A049DFEE063
:100CE000FFF7C0FE3846FFF7EBFAFFF773FE284622
:100CF000FFF7E6FA6B490888B0423AD90F880F200F
:100D00004101384600F062FB05466748874200D83B
:100D100049E10021069E0F462846314600F056FB69
:100D200031464143691A0A9A1143FAB210AB9954F9
:100D3000791C632D0546EED8C9B2303010AA505444
:100D4000B81CC0B20028564E00D030E10027059AEA
:100D5000049D9CE1303510A805700120411C490814
:100D6000012900D801210429089002913CD20023D6
:100D700064E0FFF777FE3846FFF7A2FAFFF72AFE96
:100D80002846FFF79DFA47490888B04200D819E184
:100D90000F880F204101384600F018FB05464248F5
:100DA000874200D8D5E10021069E0F4628463146ED
:100DB00000F00CFB31464143691A0A9A1143FAB21A
:100DC00010AB9954791C632D0546EED8C9B230306A
:100DD00010AA5054B81CC0B20028314E00D0BCE15B
:100DE0000022059F049D1EE2FC220A400792451E38
:100DF000002710A9CB5D4E5DCE554B55CE197078AE
:100E000009900B9B9A1C7A40089CA218885C707011
:100E100009988854B0785A1C7A40A2188B5CB37039
:100E20008854F0783B1D0B9A5740E2198F5CF7709D
:100E300088542D1F079898421F46DAD10198029EC8
:100E400006400ED010A8C15CDA43089FBA18855C32
:100E5000C5548154012E049D084C27D1059A104E8B
:100E60003DE0059A049D054C37E0C0461410024051
:100E70000200040020080048005A05001C480040F9
:100E800000E100E0000400481804004010270000C2
:100E9000100000480CE400E0002C0140FFFFFF7F41
:100EA000FF1D000070000020BF12000010A81A18DB
:100EB00051780991F91A0818801E3746067856703D
:100EC000099A0270022F07D010A81A1893780818F0
:100ED000C01E017891700370059ADF4E089F10A81C
:100EE0000021C1550078002817464FD12068000620
:100EF00008D42068000605D42068000602D42068C3
:100F00000006F3D52020A08106992068000608D4A9
:100F10002068000605D42068000602D42068000678
:100F2000F3D56320A0812068000608D4206800065D
:100F300005D42068000602D420680006F3D56D2091
:100F4000A0812068000608D42068000605D4206827
:100F5000000602D420680006F3D50398A08120681B
:100F6000000600D578E62068000600D574E6206803
:100F7000000600D570E620680006F0D56CE6C0B229
:100F8000A081491C10A8405C0028AFD0226812063E
:100F9000F5D422681206F2D422681206EFD4226831
:100FA0001206F3D5EBE7303510A805700120411C7F
:100FB0004908012900D801210429089002910CD286
:100FC000002334E0FFF74EFD3846FFF779F9FFF7CD
:100FD00001FD2846FFF774F93FE6FC220A4007921C
:100FE000451E002710A9CB5D4E5DCE554B55CE1941
:100FF000707809900B9B9A1C7A40089CA218885C18
:10100000707009988854B0785A1C7A40A2188B5C8A
:10101000B3708854F0783B1D0B9A5740E2198F5CEF
:10102000F77088542D1F079898421F46DAD101980F
:10103000029E06400ED010A8C15CDA43089FBA1881
:10104000855CC5548154012E049DA84C06D1059A97
:10105000A74E1CE0059A049DA44C16E010A81A188F
:1010600051780991F91A0818801E3746067856708B
:10107000099A0270022F07D010A81A18937808183E
:10108000C01E017891700370059A994E089F10A8B0
:101090000021C1550078002817464DD12068000670
:1010A00008D42068000605D42068000602D4206811
:1010B0000006F3D52020A08106992068000608D4F8
:1010C0002068000605D42068000602D420680006C7
:1010D000F3D56320A0812068000608D420680006AC
:1010E00005D42068000602D420680006F3D56D20E0
:1010F000A0812068000608D42068000605D4206876
:10110000000602D420680006F3D50398A081206869
:10111000000608D42068000605D42068000602D422
:1011200020680006F3D5A18197E5C0B2A081491CD3
:1011300010A8405C0028B1D022681206F5D42268BD
:101140001206F2D422681206EFD422681206F3D5F2
:10115000EBE7303510A805700098411C49080129BB
:1011600000D8009904290990079101D2002329E0B1
:10117000FC220A400892451E002710A9CA5D4B5D5B
:10118000CB554A55CA1953780B98861C7E40099C4A
:10119000A619885D50708B5590780B9B5B1C7B402B
:1011A000E318CE5C9670C854D0783B1D0B9C67400A
:1011B000099CE6198F5DD77088552D1F08989842B5
:1011C0001F46DAD10198079E06400FD010A8C45CD4
:1011D000DA4309998A18855CC5548454012E049D0C
:1011E000424C07D1059F424E0A461CE0059F049DD4
:1011F0003E4C16E010A81A1857780897CF1A3818DE
:10120000801E314606785670089A0270022907D06F
:1012100010A81A1893783818C01E017891700370BE
:10122000059F334E099A10A800218154007804E0EC
:10123000C0B2A081491C10A8405C00280ED02268D2
:101240001206F5D422681206F2D422681206EFD4F0
:1012500022681206F3D5EBE7FF1D000020680006A8
:1012600008D42068000605D42068000602D420684F
:101270000006F3D52020A08106992068000608D436
:101280002068000605D42068000602D42068000605
:10129000F3D56320A0812068000608D420680006EA
:1012A00005D42068000602D420680006F3D56D201E
:1012B000A0812068000608D42068000605D42068B4
:1012C000000602D420680006F3D50398A0812068A8
:1012D000000608D42068000605D42068000602D461
:1012E00020680006F3D5A181B7E4C0461C48004041
:1012F000FF1D0000F0B5012041020922D20613684B
:101300000B43136004021368A34313600F231B04F1
:10131000156A9D4315628304156A1D43156213689F
:10132000264D1D431560556920231D4355615569A0
:101330008D435561224A116821431160214D0021DE
:101340002960A9612962AC6968262643AE612C6ACE
:1013500004432C62A8624B242401EC6269632E686A
:1013600006432E60184D2E68802737432F604603B2
:101370002F6A37432F620526B6022F6837432F6046
:101380006E691E436E616B694026B3436B611368DF
:101390000343136082071160916111620D23DB0228
:1013A00095691D439561136A10251D43156290626E
:1013B000D4629163116801431160F0BD0004040020
:1013C0001C100240002000400004004843088B42EB
:1013D0001AD3002203098B4279D3030A8B425ED3CE
:1013E000030B8B4242D3030C8B4227D30902FF220B
:1013F00012BA030C8B4202D31212090203D0030B60
:101400008B4233D31AE0D3E0411A8041401C70472D
:1014100003460B4371D443088B42F5D300220309E2
:101420008B4254D3030A8B4239D3030B8B421DD317
:10143000030C8B4202D394466EE0090AC30B8B4225
:1014400001D3CB03C01A5241830B8B4201D38B03D0
:10145000C01A5241430B8B4201D34B03C01A524175
:10146000030B8B4201D30B03C01A5241C30A8B42B8
:1014700001D3CB02C01A5241830A8B4201D38B02A3
:10148000C01A5241430A8B4201D34B02C01A524147
:10149000030A8B4201D30B02C01A5241CDD2C309B9
:1014A0008B4201D3CB01C01A524183098B4201D335
:1014B0008B01C01A524143098B4201D34B01C01A20
:1014C000524103098B4201D30B01C01A5241C30898
:1014D0008B4201D3CB00C01A524183088B4201D307
:1014E0008B00C01A524143088B4201D34B00C01AF3
:1014F0005241411A524110007047CA0F00D0494270
:10150000031000D34042534000229C4603098B4203
:101510002DD3030A8B4212D38901FC2212BA030A8B
:101520008B420CD3890192118B4208D3890192110D
:101530008B4204D3890137D0921100E08909C30995
:101540008B4201D3CB01C01A524183098B4201D394
:101550008B01C01A524143098B4201D34B01C01A7F
:10156000524103098B4201D30B01C01A5241C308F7
:101570008B4201D3CB00C01A524183088B4201D366
:101580008B00C01A5241D9D243088B4201D34B0081
:10159000C01A5241411A00D20146524110466346D8
:1015A0005B1000D34042704763465B1000D340425B
:1015B00001B50021004201D0C9430846C046C046DB
:1015C00002BD000000000000000001020304060745
:1015D000080902030405060708090A0B0C0D0E0F83
:1015E00010100102030405060708090A0B0C0D0E72
:1015F0000F10000018160008000000201000000066
:101600001C010008281600081000002068060000D1
:101610003C01000800000000010000000400000080
:0816200000127A000000000036
:04000005080000C12E
:00000001FF
